:100000000C943F000C9400000C9400000C94000031
:100010000C9400000C9400000C9400000C94000060
:100020000C9400000C9400000C9400000C946C00E4
:100030000C9400000C948B000C9400000C940000B5
:100040000C9400000C9400000C9400000C94000030
:100050000C9400001027E80364000A00010000105F
:10006000000110000100000000010000000000007D
:100070000100020066000800040068000000F89417
:10008000EE27ECBBF1E0FBBFEBBFE5BF8DE0A2E0EC
:10009000BB27ED938A95E9F780E094E0A0E6ED9325
:1000A0000197E9F7E0E7F0E085919591009761F01D
:1000B000A591B59105901590BF01F00105900D92A5
:1000C0000197E1F7FB01F0CFEFE5EDBFE4E0EEBF14
:1000D000C0E6D1E00C94E701EA93FA93EFB7EA9314
:1000E0001A930A931BB10CB1E12FEC7189F4E42D42
:1000F0004394F0E0E359FE4F0083E5E0E41509F492
:1001000044246394E5E0E61519F46624689420F825
:100110000991199112C0EA93FA93EFB7EA93BB20C1
:1001200061F0BA94E82D8394F0E0EE58FE4FE08140
:10013000ECB9EAE0E81509F48824E991EFBFF991F8
:10014000E9911895AA93EAE0EB15E9F3F894BB203E
:1001500011F45D990DC0E92D9394F0E0EE58FE4F37
:10016000A881A083EAE0E91509F49924B39402C0B8
:10017000E881ECB9789465C0E0E0E0936D01E0932C
:100180006E01E0936F01E0937001E09371014424EC
:1001900008950E94BB020895EFEFEABBE0E0EBBBDD
:1001A000EFEFE7BBE0E0E8BBEFEFE4BBE0E0E5BB8F
:1001B000ECEFE1BBE0E0E2BBDE9AC09AC29AA1E0BC
:1001C000B0E00E949E03DF9A0895AA938A9A8B9AC0
:1001D0008C9ABB9ABC9ABD9ABE9ABF9A85E88A95BA
:1001E000F1F7E881E17011F0949A01C09498E881E8
:1001F000E27011F0939A01C09398E881E47011F0D5
:10020000929A01C09298E881E87011F0C79A01C0F3
:10021000C798E881E07111F0C69A01C0C698E881DC
:10022000E07211F0C59A01C0C598E881E07411F040
:10023000C49A01C0C498E881E07811F0C39A01C063
:10024000C398219608951A9310E08A988B980E947B
:10025000C50285E88A95F1F7849911608399126047
:1002600082991460B7991860B6991061B5991062B7
:10027000B4991064B3991068E12F199108950E9400
:10028000D203E881E17011F0959A01C09598E88158
:10029000E27011F0969A01C09698E881E47011F02E
:1002A000979A01C09798E881E87011F0A89A01C068
:1002B000A898E881E07111F0A99A01C0A998E88195
:1002C000E07211F0AA9A01C0AA98E881E07411F0D6
:1002D000AB9A01C0AB98E881E07811F0AC9A01C00C
:1002E000AC98E981E17011F0DA9A01C0DA98E981FD
:1002F000E27011F0D99A01C0D998E981E47011F047
:10030000C19A01C0C198E981E87011F0D89A01C082
:10031000D898E981E07111F0AD9A01C0AD98E981FA
:10032000E07211F0DB9A01C0DB98E981E07411F012
:10033000DC9A01C0DC98E981E07811F0AE9A01C046
:10034000AE980E94CC02E070F070617070700E94F4
:10035000D70311F0AF9A01C0AF980E94CC02E070B1
:10036000F070627070700E94D70311F0DD9A01C0C6
:10037000DD98552061F40E94CC02E070F07064704A
:1003800070700E94D70311F0DF9A01C0DF981DC082
:100390000E94CF02AC8119DFC298DE98DE9A85E810
:1003A0008A95F1F7259608950E94CF028A988B9A34
:1003B0000E94C502929A939A949AC39AC49AC59A33
:1003C000C69AC79AC298C0983EDF249608950E94A4
:1003D000BB02E0E0E3BFE2BFECBFEFBDEEBDEDBDB1
:1003E000ECBDE7BDE6BDEBBDEABDE9BDE8BDE2BDE4
:1003F000E5BDE4BDE3BDE9BFE5BFE4BFEBB9E8EDB2
:10040000EAB9E6E8E0BDE0E0E0BDE8E0E9B9E0E84F
:10041000E8B9E0E0E0BFE6B9EDB9E6BF789413DFF4
:10042000BBDEAAEAB0E080E090E029DFA091710194
:10043000A13009F49EC0A0917101A230D1F40E94B4
:10044000D8020E94E802A0E0B0E080E090E00E94C4
:10045000F0020E94F9020E94D8020E94E802A1E084
:10046000B0E080E090E00E94F0020E94F90284DE99
:1004700080C0A0917101A33071F4A0916D01A130F1
:1004800019F4E1E05E2E05C0E0916D01E03009F461
:10049000552472DE6EC0A0917101A43041F40E9417
:1004A00001030E9447030E94500366DE62C0A091D0
:1004B0007101A53091F40E94D8020E9458030E9455
:1004C0000103E0916D01EA930E94470361DFE0912F
:1004D0006D010E94600350DE4CC0A0917101A630F6
:1004E00059F40E94D802E0E80E9466030E94D802F4
:1004F000E0E10E9466033DC0A0917101A73081F444
:100500000E9401030E946D030E94770338F40E9449
:100510008A030E9450030E949303F6CF2DDE29C068
:10052000A0917101A830E9F40E94010325DE0E9428
:100530006D030E94770398F44420F1F30E94D802DF
:100540000E945803E0916D01EA930E948A0320DF24
:100550004424E5E50E9460030E949303EACF0CDE89
:1005600008C0A0917101A93021F413DE15DE6BDE05
:1005700003DE5CCFFFCFE0E0EABBEBBBE7BBE8BB51
:10058000E4BBE5BBE1BBE2BB08958C98BB98BC988B
:10059000BD98BE98BF9808950E94C80308950E9410
:1005A000D203DE9AC09AC29A0E94CD030C943F01F6
:1005B000EAEAEA93A5E5B5E580E090E00E94C8018B
:1005C000E5E5EA93AAEABAE280E090E00C94C8017B
:1005D000E0E9EA93A5E5B5E580E090E00C94C80178
:1005E0000E94D401E0936001A09160010E94A200EA
:1005F000DFCFE0EFEA93A5E5B5E580E090E00C946D
:10060000C801E0916E01FF2766277727E093650117
:10061000F09366016093670170936801A091650192
:10062000B09166018091670190916801E8E00E94B5
:10063000AD03DF01CB01E0916F01F0E00E94B9034F
:100640000E94A803E0936501F0936601609367013F
:1006500070936801A0916501B09166018091670176
:1006600090916801E8E00E94AD03DF01CB01E091C9
:100670007001F0E00E94B9030E94A803E0936501B5
:10068000F093660160936701709368010895A091EB
:100690006501B091660180916701909168010895AC
:1006A0000E94D401E0936001A09160010C94A2002B
:1006B000E0EAEA93A5E5B5E580E090E00C94C80196
:1006C000E0936001A09160010C94A200EA93A5E57B
:1006D000B5E580E090E00C94C801E0E0E0936901AA
:1006E000E0936A01E0936B01E0936C010895E0915F
:1006F0006501F09166016091670170916801A091B8
:100700006901B0916A0180916B0190916C010E9426
:10071000DB030895A0916901B0916A0180916B019A
:1007200090916C010895A9E6B1E00E94BE03EF5FCD
:10073000FF4F6F4F7F4F0E94C3030895109639F00B
:1007400080ED97E00197F1F7A8951197C9F7089503
:10075000EA0FFB1F681F791F0895EE230E2EFD017F
:10076000BC0131F0EE0FFF1F661F771F0A94D1F70F
:1007700008956F2F660F660B762F0895ED91FD910A
:100780006D917D9108957E936E93FE93EE930895FF
:10079000E881F9816A817B810895A881B9818A8184
:1007A0009B8108959A938A93BA93AA930895309758
:1007B000604070400895AE17BF07860797070895F9
:00000001FF
